:100000000C9462000C948A000C948A000C948A0070
:100010000C948A000C948A000C948A000C948A0038
:100020000C948A000C948A000C948A000C948A0028
:100030000C948A000C948A000C948A000C948A0018
:100040000C943C0B0C948A000C946B0A0C94450A9B
:100050000C948A000C948A000C948A000C948A00F8
:100060000C948A000C948A000000000023002600F3
:10007000290000000008000201000003040700003E
:1000800000000000000000000000250028002B00F8
:1000900000000000240027002A00040404040404D3
:1000A0000404020202020202030303030303010227
:1000B00004081020408001020408102001020408F6
:1000C00010202D0E11241FBECFEFD8E0DEBFCDBF14
:1000D00022E0A2E9B1E001C01D92AA3CB207E1F71B
:1000E00011E0A0E0B1E0E6EEFDE102C005900D9266
:1000F000A239B107D9F710E0C2E6D0E004C02197D9
:10010000FE010E94C40EC136D107C9F70E94B50C8A
:100110000C94F10E0C9400000895CF93DF931F927E
:10012000CDB7DEB76983DC01ED91FC910280F381EC
:10013000E02D41E050E0BE016F5F7F4F09950F90C9
:10014000DF91CF910895FC01818D928D0895FC017E
:100150008489958908952AE831E0FC013183208360
:10016000FB014089518962897389FC014283538371
:10017000648375830895DC01ED91FC91008CF18D11
:10018000E02D09949B0190E00496982F8827642F16
:10019000820F931F0C94200C0F931F93CF93DF9328
:1001A0001F92CDB7DEB790E00496982F88278C0178
:1001B000060F171F0E94880B8FE00E94BA0B812F39
:1001C0000E94BA0B802F0E94BA0B80E00E94BA0BEB
:1001D00089830E94860B89810F90DF91CF911F91B7
:1001E0000F910895BF92CF92DF92EF92FF920F93FB
:1001F0001F93CF93DF9300D000D000D0CDB7DEB7F0
:10020000FC01208D243009F05DC06A017B018C0166
:10021000B12C63E070E08B2D0E94CC00811103C0F3
:10022000F801B08E06C08831D9F3B394F4E0BF1260
:10023000F0CFF801808D843009F444C096E0EEE000
:10024000F1E0DE01119601900D929A95E1F7F70128
:1002500093819F779C8394819D8395819E83B70131
:100260006E5F7F4F90E0982F882744E050E0845FD6
:100270009B4F0E94F10BF801F08C4D2D60E170E076
:100280008F2D0E94C2004C2D61E170E08F2D0E94E5
:10029000C200F801808D90E0982F882746E050E05A
:1002A000BE016F5F7F4F8A5F9B4F0E94F10BF80189
:1002B000128E118E20E8A60162E0808D0E94420C11
:1002C00081E001C080E026960FB6F894DEBF0FBE35
:1002D000CDBFDF91CF911F910F91FF90EF90DF90F5
:1002E000CF90BF90089508958CBD9DBD0895AF92A5
:1002F000BF92CF92DF92EF92FF921F93CF93DF9343
:10030000182F5B017A0180E590E00E947401C0E043
:10031000D0E0812F0E948A0B6C01892B21F0812F64
:100320000E948A0BEC01CC15DD0599F7209799F412
:1003300063E070E0812F0E94CC008431F1F08823CB
:10034000E1F0C1E0D0E08C3111F4C0E0D0E0D19513
:10035000C195D10912C0EC16FD060CF4E7011C167C
:100360001D065CF420E0AE01B501812F0E94460815
:1003700060E470E0812F0E94A50CCE01DF91CF9147
:100380001F91FF90EF90DF90CF90BF90AF900895B6
:10039000CF93DF93FC01218D328D2115310519F4A6
:1003A0008FEF9FEF11C0EC014217530708F0A9012E
:1003B000888D0E9477011816190694F7298D3A8DB9
:1003C000281B390B3A8F298FDF91CF9108950F9316
:1003D0001F93CF93DF931F92CDB7DEB7FC01218D22
:1003E000328D232B61F08C0141E050E0BE016F5F44
:1003F0007F4F808D0E947701181619061CF08FEF31
:100400009FEF08C0F801818D928D0197928F818FA7
:10041000898190E00F90DF91CF911F910F91089506
:10042000CF93C82F80E590E00E94740160E170E0F6
:100430008C2F0E94A50C4FEF62E070E08C2FCF91C3
:100440000C94C200CF93DF93EC01888D843061F06F
:100450000E941002E88DF0E0EE0FFF1FEE56FE4FF7
:100460001182108284E0888FDF91CF9108951F93CD
:10047000CF93DF931F92CDB7DEB7FC01218D328D74
:10048000232B89F0108D80E590E00E94740121E01B
:1004900041E050E0BE016F5F7F4F812F0E94460810
:1004A000898190E002C08FEF9FEF0F90DF91CF9195
:1004B0001F910895BF92CF92DF92EF92FF920F9318
:1004C0001F93CF93DF93CDB7DEB728970FB6F8947D
:1004D000DEBF0FBECDBF8C01F801818D928D892BBF
:1004E00049F0D801ED91FC910680F781E02DC8011B
:1004F0000995F2CFB08C80E590E00E947401E12C68
:10050000F12C8B2D0E948A0B6C01892B21F08B2DF5
:100510000E948A0B7C01EC14FD0499F71E141F0441
:100520005CF548E050E0BE016F5F7F4FD801589600
:100530008C910E9477019C0118161906DCF48981C0
:100540009A81AB81BC81F801808B918BA28BB38B9C
:100550008D8190E0982F88272E81820F911D958B99
:10056000848B2F8130E0322F22278885280F311D80
:10057000328F218FC90102C080E090E028960FB62B
:10058000F894DEBF0FBECDBFDF91CF911F910F91C9
:10059000FF90EF90DF90CF90BF9008957F928F9261
:1005A0009F92AF92BF92CF92DF92EF92FF920F9302
:1005B0001F93CF93DF935C014B016A01FC01068915
:1005C0001789708C80E590E00E947401C0E0D0E053
:1005D000872D0E94A20B7C01892B21F0872D0E9480
:1005E000A20BEC01CE15DF0599F7CC15DD0578F4EB
:1005F000C0E0D0E0872D0E94A20B6C01892B21F076
:10060000872D0E94A20BEC01CC15DD0599F764E261
:1006100070E0872D0E94CC00E82EF12C65E270E09E
:10062000872D0E94CC00FE2CEE24E82AE701C00FA3
:10063000D11F9E013770E72CF12CC701880F991F3D
:10064000AC014C535E4F7A01FA0180819181820F97
:10065000931FA9014C0D5D1D4130584090F000E002
:1006600018E0021B130BA801B4010E94F10BA601B4
:10067000401B510BB401600F711FF7018081918104
:1006800002C0A601B4010E94F10BCC0DDD1D4D2F5F
:1006900064E270E0872D0E94C2004C2F65E270E09A
:1006A000872D0E94C200F501868997898C0D9D1DBA
:1006B000978B868BC601DF91CF911F910F91FF9091
:1006C000EF90DF90CF90BF90AF909F908F907F90F2
:1006D0000895CF93FC01C08D80E590E00E947401E5
:1006E00060E270E08C2F0E94A50C62E070E08C2F1D
:1006F0000E94CC0084FD15C062E070E08C2F0E9447
:10070000CC0083FF09C048E162E070E08C2F0E94BA
:10071000C20080E090E00DC080E590E00E9474018E
:10072000E4CF40E162E070E08C2F0E94C20081E0E3
:1007300090E0CF910895EF92FF921F93CF93DF93B4
:10074000EB017A01FC01178A168A108D8A818111CA
:1007500009C08B81811106C08C81811103C08D81FC
:10076000882319F1E114F10401F180E590E00E9481
:100770007401BE016E5F7F4F812F90E0982F882714
:1007800044E050E0845F9B4F0E94F10B4F2D60E1ED
:1007900070E0812F0E94C2004E2D61E170E0812F38
:1007A0000E94C20081E090E002C080E090E0DF9112
:1007B000CF911F91FF90EF900895EF92FF921F93BA
:1007C000CF93DF93FC01208D243011F080E022C014
:1007D0007B01EC0110E080E590E00E94740163E091
:1007E00070E0812F0E94CC00811102C0188F05C0DB
:1007F0008831E1F31F5F143071F7888D843031F355
:10080000FD86EC861A8E198E20E0A70162E00E9418
:10081000420C81E0DF91CF911F91FF90EF900895FE
:100820004F925F926F927F928F929F92AF92BF9200
:10083000CF92DF92EF92FF920F931F93CF93DF93AC
:10084000CDB7DEB7EE970FB6F894DEBF0FBECDBFC3
:100850005C018B014A018AE891E09A8389831C86B6
:100860001B8648EE53E060E070E04D875E876F873F
:10087000788B24E631E03A872987988F8F8B198E01
:100880001A8E1B8E1C8E24E029A399AB88AB1AAA62
:100890001BAA1CAA1DAA8091730290917402A091B8
:1008A0007502B09176028EA39FA3A8A7B9A78B83E8
:1008B0009C83AD83BE8318861F82F80120E080E010
:1008C00090E06AE03191332319F140ED430F4A3053
:1008D00080F4689FA001699F500D1124CA01C09740
:1008E000830F911D37FD9A958F3F910559F350F372
:1008F0002BC03E3249F5233039F1A2E3B0E0AC0F12
:10090000BD1FA20FB11D8C932F5F80E090E0DACF66
:100910002330D1F48DABD501ED91FC910088F189A4
:10092000E02D8AE891E09DA38CA38AA99BA9ACA99C
:10093000BDA98EA39FA3A8A7B9A7A401BE016C5D02
:100940007F4FC501099530C24B815C816D817E81ED
:1009500080917B0290917C02A0917D02B0917E02F9
:10096000481759076A077B0709F41CC20E94300B1D
:100970006F7077277C5FCE0109960E94DD0381307E
:1009800009F00DC28AE891E09DA38CA38B819C8124
:10099000AD81BE818EA39FA3A8A7B9A745E350E070
:1009A000BE016C5D7F4FCE0109960E949B03892B8F
:1009B00019F400E010E07EC10E94300B78876F834D
:1009C0007627672776277DA36CA342E050E0BE011F
:1009D0006C5D7F4FCE0109960E94CE0281E090E0CF
:1009E0009FAB8EAB42E050E0BE016A5C7F4FCE0110
:1009F00009960E94CE0280E091E09FAB8EAB42E070
:100A000050E0BE016A5C7F4FCE0109960E94CE0283
:100A10001FAA1EAA42E050E0BE016A5C7F4FCE01D1
:100A200009960E94CE0242E050E0BE016A5C7F4F10
:100A3000CE0109960E94CE0242E050E0BE016A5CFF
:100A40007F4FCE0109960E94CE027801D7018C918A
:100A5000882319F1F8017F018191811117C0670185
:100A6000C01AD10A1C141D04A4F4C8AE41E050E021
:100A7000BE01685C7F4FCE0109960E94CE02A6019E
:100A8000B801CE0109960E94CE0203C08E3219F73A
:100A9000E6CF87010F5F1F4FD9CF18AE41E050E07E
:100AA000BE01685C7F4FCE0109960E94CE0200E035
:100AB00011E01FAB0EAB42E050E0BE016A5C7F4F1D
:100AC000CE0109960E94CE021FAB0EAB42E050E071
:100AD000BE016A5C7F4FCE0109960E94CE02CE0114
:100AE00009960E946903892B09F463CF63E0E62E1F
:100AF000F12C0E94300B2B013C01CE0109960E9483
:100B00005A0218161906A4F00E94300BDC01CB0122
:100B100084199509A609B70989389341A105B1053A
:100B2000C8F462E370E080E090E00E94F60AE5CF4E
:100B30004B815C816D817E81898D9A8DAB8DBC8D61
:100B4000481759076A077B0741F48D8D9E8DC5971D
:100B500021F406C02FEF3FEFA4C02EEF3FEFA1C05E
:100B60008AA19BA10C970CF4B2C04CE050E0BE01EE
:100B70006C5D7F4FCE0109960E94C8018EA190E066
:100B8000982F88272FA1822B9BAF8AAF2CA130E012
:100B9000322F22274DA1242B4F815885421753070E
:100BA00009F092C097FF90C08F709270892B09F066
:100BB000F3C00AA510E0102F00278BA5082B011504
:100BC000110509F4E6C0C12CD12C88A590E0982F1E
:100BD000882729A5822BC816D90608F47BC0C12C0A
:100BE000D12C41E050E0BE01645C7F4FCE010996FC
:100BF0000E94C8018CAD982F907C09F0A5C081118E
:100C000097C08CAD8111EDCF42E050E0BE01685C31
:100C10007F4FCE0109960E94C80142E050E0BE011C
:100C20006A5C7F4FCE0109960E94C801CE010996E9
:100C30000E94E701CE0109960E94E701CE010996C4
:100C40000E94E701CE0109960E94E70142E050E0D0
:100C5000BE01665C7F4FCE0109960E94C80188AD37
:100C600099AD8115914009F075C02EA93FA9322791
:100C7000232732272130310509F06CC08AAD9BADA6
:100C80008115944009F082C044E050E0BE016E5CE2
:100C90007F4FCE0109962DAF3EAF0E94C8012DAD0A
:100CA0003EAD8901B1E0EB1AF10821F02F3F3F4F33
:100CB00009F41FCFCE0109960E94220201301105CE
:100CC00009F429CEC80170C02CEF3FEFEACF2DEF19
:100CD0003FEFE7CF41E050E0BE016A5C7F4FCE01BD
:100CE00009960E94C8018EA9811117C08EA9811191
:100CF000F1CFCE0109960E94E701CE0109960E942C
:100D0000E701CE0109960E94E701CE0109960E94F3
:100D1000E701FFEFCF1ADF0A58CF8EA99FEF980F98
:100D20009EAB882319F3CE0109960E94E701F5CF07
:100D30008CAD9FEF980F9CAF882309F462CFCE0152
:100D400009960E94E701F4CFCE0109960E94E701BF
:100D50001CAE57CF612C712C8AAD9BAD982789278B
:100D600098276816790640F4CE0109960E94E7019B
:100D70008FEF681A780AF0CFAFEFCA1ADA0AC016F6
:100D8000D10609F02ECF26EF3FEF8BCF27EF3FEFB5
:100D900088CF2AEF3FEF85CF2BEF3FEF82CF80E068
:100DA00090E002C08EEF9FEFEE960FB6F894DEBF94
:100DB0000FBECDBFDF91CF911F910F91FF90EF90AC
:100DC000DF90CF90BF90AF909F908F907F906F906B
:100DD0005F904F900895CF92DF92EF92FF920F9322
:100DE0001F93CF93DF936C017A018B01C0E0D0E0B9
:100DF000CE15DF0589F0D8016D918D01D601ED91F9
:100E0000FC910190F081E02DC6010995892B11F428
:100E10007E0102C02196ECCFC701DF91CF911F91D7
:100E20000F91FF90EF90DF90CF900895CF92DF92D7
:100E3000EF92FF920F931F93CF93DF93CDB7DEB75F
:100E4000C254D1090FB6F894DEBF0FBECDBFFC016E
:100E500082819381A481B58123968CAF9DAFAEAF83
:100E6000BFAF239721E023962FAF239723964CAD56
:100E70005DAD6EAD7FAD23974BAB5CAB6DAB7EAB29
:100E800089AF9AAFABAFBCAF8DA79EA7AFA7B8ABEA
:100E900028AB4DA55EA56FA578A94FA358A769A754
:100EA0007AA72EAB4BA95CA96DA97EA949A35AA329
:100EB0006BA37CA38B8F9C8FAD8FBE8F4AE851E0D4
:100EC0005C8B4B8B3FEF3D8B3E8B3F8B188E5E8751
:100ED0004D872AA7CFA0D8A4E9A4FAA4CF86D88AA0
:100EE000E98AFA8A2CA309A11AA12BA13CA109879E
:100EF0001A872B873C875A8349838B839C83AD83D6
:100F0000BE836CE271E080E090E00E94F60A1FB7B9
:100F1000F8948091B801811124C0E4EAF0E0849152
:100F2000E8EBF0E09491E82FF0E0EE0FFF1FE057C0
:100F3000FF4FA591B491EC91E92321F461E08AE09F
:100F40000E94C60A8AE00E94860C8CB580618CBD26
:100F50008CB580648CBD8DE00E94860C8BE00E9475
:100F6000860C8091B8018F5F8093B8011FBF229AD1
:100F700080E590E00E94740160E880E090E00E94CB
:100F8000200C65E58BE190E00E94200C65E58AE18C
:100F900090E00E94200C0E94730180E090E4909306
:100FA000C5018093C40180E090E69093CD018093C9
:100FB000CC0180E098E49093C7018093C60180E063
:100FC00098E69093CF018093CE0180E090E59093D6
:100FD000C9018093C80180E090E79093D10180938C
:100FE000D00180E098E59093CB018093CA0180E026
:100FF00098E79093D3018093D20180E590E00E941E
:10100000740146E050E064E071E089E090E00E9405
:10101000F10B44E050E0BE016D5F7F4F8FE090E048
:101020000E94F10B44E050E0BE01615F7F4F81E020
:1010300090E00E94F10B44E050E0BE016B5E7F4FF8
:1010400085E090E00E94F10B0E94730181E08C87A3
:1010500089859A85AB85BC858093730290937402D1
:10106000A0937502B0937602CE5BDF4F0FB6F89473
:10107000DEBF0FBECDBFDF91CF911F910F91FF90CB
:10108000EF90DF90CF9008950E94CA0E8F929F92AA
:10109000AF92BF92CF92DF92EF92FF920F931F9386
:1010A000CF93DF93B82E4B018A01A22E68E270E045
:1010B0000E94CC00C82FD0E069E270E08B2D0E9426
:1010C000CC00DC2FCC27C82B9E013770CB2CD12C29
:1010D000C601880F991FAC0144535E4F6A01FA01A3
:1010E00080819181820F931FA801420F531F4130CD
:1010F000584098F060E078E07B01E21AF30AA7011B
:10110000B4010E94C10BA8014E195F09B4016E0D14
:101110007F1DF6018081918102C0A801B4010E9467
:10112000C10BA1100EC0C00FD11F4D2F68E270E09F
:101130008B2D0E94C2004C2F69E270E08B2D0E9423
:10114000C200DF91CF911F910F91FF90EF90DF9040
:10115000CF90BF90AF909F908F9008954F925F92E5
:101160006F927F92EF92FF920F931F93CF93DF9333
:10117000CDB7DEB7A1970FB6F894DEBF0FBECDBFD7
:101180007C01FA01CB0119A2223008F42AE08E0179
:101190000F5D1F4F422E512C612C712CBF01A301FA
:1011A00092010E94CF0EF901CA01015011096A3063
:1011B00014F4605D01C0695CD8016C93232B242B6F
:1011C000252B61F70115110591F0F8010190002020
:1011D000E9F73197AF01401B510BD701ED91FC911D
:1011E0000280F381E02DB801C701099502C080E0BB
:1011F00090E0A1960FB6F894DEBF0FBECDBFDF9191
:10120000CF911F910F91FF90EF907F906F905F9023
:101210004F900895FC01918D828D981761F0828D19
:10122000DF01A80FB11D5D968C91928D9F5F9F731A
:10123000928F90E008958FEF9FEF0895FC01918DBC
:10124000828D981731F0828DE80FF11D858D90E029
:1012500008958FEF9FEF0895FC01918D228D892FC6
:1012600090E0805C9F4F821B91098F7399270895AE
:1012700084ED91E00E942C0921E0892B09F420E003
:10128000822F0895FC01848DDF01A80FB11DA35AA0
:10129000BF4F2C91848D90E001968F739927848F96
:1012A000A689B7892C93A089B1898C9180648C938D
:1012B000938D848D981306C00288F389E02D808178
:1012C0008F7D80830895EF92FF920F931F93CF93AA
:1012D000DF93EC0181E0888F9B8D8C8D981305C086
:1012E000E889F989808185FD24C0F62E0B8D10E0F8
:1012F0000F5F1F4F0F731127E02E8C8DE8120CC06B
:101300000FB607FCFACFE889F989808185FFF5CF10
:10131000CE010E944209F1CF8B8DFE01E80FF11D35
:10132000E35AFF4FF0820B8FEA89FB89808180624C
:1013300007C0EE89FF896083E889F989808180642C
:10134000808381E090E0DF91CF911F910F91FF901A
:10135000EF900895CF93DF93EC01888D8823C9F037
:10136000EA89FB89808185FD05C0A889B9898C91AE
:1013700086FD0FC00FB607FCF5CF808185FFF2CF49
:10138000A889B9898C9185FFEDCFCE010E944209D1
:10139000E7CFDF91CF91089580E090E0892B29F08D
:1013A0000E94380981110C94000008953FB7F89409
:1013B0008091C0019091C101A091C201B091C3017F
:1013C00026B5A89B05C02F3F19F00196A11DB11DA0
:1013D0003FBFBA2FA92F982F8827820F911DA11DDB
:1013E000B11DBC01CD0142E0660F771F881F991F18
:1013F0004A95D1F708958F929F92AF92BF92CF9264
:10140000DF92EF92FF920F931F93CF93DF937C01B4
:10141000EB016C0182E0C80ED11C4701E5E08E0EA5
:10142000911C00E010E0F60141916F0150E060E096
:1014300070E02AE0CE010E94AE085C01E881F981EB
:101440000190F081E02D6EE2CE0109958A0D9B1D81
:10145000080F191FC814D90431F7F701458150E06E
:1014600060E070E02AE0CE010E94AE08800F911F7C
:10147000DF91CF911F910F91FF90EF90DF90CF9070
:10148000BF90AF909F908F9008951F920F920FB6CC
:101490000F9211242F933F934F935F936F937F93FA
:1014A0008F939F93AF93BF93EF93FF9384ED91E05E
:1014B0000E944209FF91EF91BF91AF919F918F914F
:1014C0007F916F915F914F913F912F910F900FBE40
:1014D0000F901F9018951F920F920FB60F92112424
:1014E0002F938F939F93EF93FF93E091E401F091FB
:1014F000E5018081E091EA01F091EB0182FD12C0EB
:1015000090818091ED018F5F8F732091EE018217A2
:1015100051F0E091ED01F0E0EC52FE4F958F809399
:10152000ED0101C08081FF91EF919F918F912F91EB
:101530000F900FBE0F901F901895833081F028F404
:10154000813099F08230A1F008958730A9F0883079
:10155000B9F08430D1F4809180008F7D03C08091F8
:1015600080008F7780938000089584B58F7702C0C4
:1015700084B58F7D84BD08958091B0008F7703C0BE
:101580008091B0008F7D8093B00008951F93CF931A
:10159000DF93282F30E0F901EE58FF4F8491F901D5
:1015A000E255FF4FD491F901E656FF4FC491CC2389
:1015B000C9F0162F81110E949D0AEC2FF0E0EE0F6A
:1015C000FF1FEA57FF4FA591B4918FB7F8941111FF
:1015D00005C09C91ED2FE095E92302C0EC91ED2B25
:1015E000EC938FBFDF91CF911F9108958F929F92BF
:1015F000AF92BF92CF92DF92EF92FF926B017C018C
:101600000E94D6094B015C01C114D104E104F1042C
:10161000F1F00E94D609DC01CB0188199909AA09C9
:10162000BB09883E9340A105B10570F321E0C21AC1
:10163000D108E108F10888EE880E83E0981EA11C0D
:10164000B11CC114D104E104F10419F7DDCFFF90FE
:10165000EF90DF90CF90BF90AF909F908F900895C4
:101660002FB7F8946091BC017091BD018091BE01CB
:101670009091BF012FBF08951F920F920FB60F9246
:1016800011242F933F938F939F93AF93BF93809198
:10169000BC019091BD01A091BE01B091BF013091FC
:1016A000BB0123E0230F2D3720F40196A11DB11DAE
:1016B00005C026E8230F0296A11DB11D2093BB0192
:1016C0008093BC019093BD01A093BE01B093BF0174
:1016D0008091C0019091C101A091C201B091C3015C
:1016E0000196A11DB11D8093C0019093C101A093EB
:1016F000C201B093C301BF91AF919F918F913F9170
:101700002F910F900FBE0F901F9018952A9A089551
:101710002A9808951F93CF93DF93182F66E270E005
:101720000E94CC00C82FD0E067E270E0812F0E94B9
:10173000CC00DC2FCC279E01282BC901DF91CF9153
:101740001F9108951F93CF93DF93182F60E270E0ED
:101750000E94CC00C82FD0E061E270E0812F0E948F
:10176000CC00DC2FCC279E01282BC901DF91CF9123
:101770001F9108958EBD00000DB407FEFDCF8EB5FC
:101780000895CF92DF92EF92FF920F931F93CF9322
:10179000DF93EC017A018B016C01C40ED51ECC15D0
:1017A000DD05A9F00E94880B8FE00E94BA0B8D2FF7
:1017B0000E94BA0B8C2F0E94BA0B219680E00E94E7
:1017C000BA0BF80181938F010E94860BE8CFC70105
:1017D000DF91CF911F910F91FF90EF90DF90CF900D
:1017E0000895CF92DF92EF92FF920F931F93CF93C2
:1017F000DF93EC017A018B016C01C40ED51ECC1570
:10180000DD05A1F00E94880B80EF0E94BA0B8D2F9E
:101810000E94BA0B8C2F0E94BA0B2196F80181917D
:101820008F010E94BA0B0E94860BE9CFC701DF919E
:10183000CF911F910F91FF90EF90DF90CF9008957F
:101840001F93CF93DF9300D0CDB7DEB7182F6A83F5
:1018500099830E94880B80EF0E94BA0B9981892F8F
:101860000E94BA0B812F0E94BA0B6A81862F0E94B8
:10187000BA0B0E94860B81E00F900F90DF91CF9101
:101880001F910895FF920F931F93CF93DF9300D082
:10189000CDB7DEB7F82E8A012A8369830E94100231
:1018A00080E590E00E9474012A816981462F422BD5
:1018B00060E070E08F2D0E94C2000115110551F407
:1018C0000091B9011091BA010F5F1F4F1093BA0137
:1018D0000093B901412F64E070E08F2D0E94C20097
:1018E000402F65E070E08F2D0E94C20061E070E043
:1018F0008F2D0E94A50C0E94730181E00F900F9024
:10190000DF91CF911F910F91FF90089590E0FC011E
:10191000E255FF4F2491FC01E656FF4F8491882346
:1019200099F090E0880F991FFC01E057FF4FA591B7
:10193000B491FC01EA57FF4F859194918FB7F894C9
:10194000EC91E22BEC938FBF0895CF93C82F462FD5
:1019500061E070E00E94C20061E070E08C2F0E94A4
:10196000CC008111F9CFCF910895CF93DF9300D0B0
:1019700000D000D0CDB7DEB7789484B5826084BD46
:1019800084B5816084BD85B5826085BD85B5816083
:1019900085BD80916E00816080936E001092810001
:1019A00080918100826080938100809181008160BC
:1019B000809381008091800081608093800080917D
:1019C000B10084608093B1008091B0008160809309
:1019D000B00080917A00846080937A0080917A00D0
:1019E000826080937A0080917A00816080937A008F
:1019F00080917A00806880937A001092C1008AE812
:101A000091E09A83898380919C0290919D02A0919C
:101A10009E02B0919F028B839C83AD83BE83CE01D7
:101A200001960E94160763E379E08FE792E00E9437
:101A3000DD0389E00E94860C88E00E94860C60E04D
:101A400089E00E94C60AE091E401F091E50182E09C
:101A50008083E091E001F091E1011082E091E201E8
:101A6000F091E3018FEC80831092EC01E091E801AA
:101A7000F091E90186E08083E091E601F091E701D1
:101A8000808180618083E091E601F091E7018081AF
:101A900088608083E091E601F091E70180818068B1
:101AA0008083E091E601F091E70180818F7D808362
:101AB00092E3492E512C612C712C2AE7822E20E0D2
:101AC000922E06EB10E03CE3C32ED12CE12CF12C3E
:101AD00042E0A42EB12C8091000190910101A091CF
:101AE0000201B09103010097A105B10561F00197D2
:101AF000A109B1098093000190930101A093020113
:101B0000B09303012CC040920001509201016092F9
:101B1000020170920301F4018491F8013490E2EA29
:101B2000F0E024902220A1F081110E949D0AE22D74
:101B3000F0E0EE0FFF1FE859FF4FA591B4918C9193
:101B4000382291E080E009F490E0692F782F02C0FC
:101B500060E070E0F1E06F2788E00E94C60A8091A3
:101B6000B6019091B7018130910531F08230910535
:101B7000A1F0892B49F530C0C092B201D092B301D7
:101B8000E092B401F092B50161E089E00E94C60ADA
:101B9000B092B701A092B6011FC08091B20190919E
:101BA000B301A091B401B091B5010197A109B109A8
:101BB0008093B2019093B301A093B401B093B501A7
:101BC000892B8A2B8B2B41F460E089E00E94C60AA6
:101BD0001092B7011092B6018FE792E00E945A026C
:101BE000892B91F148E150E06AE971E08FE792E0DA
:101BF0000E94BB0080919A01813631F580919B0152
:101C00008C3611F580919C018136F1F480919D0113
:101C10008237D1F480919E018D36B1F480919F017D
:101C2000823391F48091A001833371F48091A101FA
:101C3000833651F48091A201833731F481E090E042
:101C40009093B7018093B6016AE070E080E090E085
:101C50000E94F60A0E94CC093ECFE0EAF2E08AE850
:101C600091E0918380831282138214821582E4EDC5
:101C7000F1E01382128248EE53E060E070E04483AA
:101C800055836683778328E131E03183208325EC17
:101C900030E03587248724EC30E03787268720EC36
:101CA00030E0318B208B21EC30E0338B228B22EC27
:101CB00030E0358B248B26EC30E0378B268B118E71
:101CC000128E138E148EE6EAF2E0918380831282E4
:101CD000138214821582ECEAF2E0918380831282EF
:101CE000138214821582E2EBF2E0918380831282E8
:101CF000138214821582E8EBF2E0918380831282D2
:101D0000138214821582E1E7F2E0918380831282CC
:101D1000138214821582E9E7F2E0918380831282B4
:101D2000138214821582EEEBF2E09183808312829B
:101D3000138214821582E4ECF2E091838083128294
:101D4000138214821582EAE9F2E09183808320EC09
:101D5000228328EA238327E1248321EB2583EFE7ED
:101D6000F2E013821282448355836683778324E6EC
:101D700031E03183208397878687108A118A128AFF
:101D8000138A84E0808F0895EE0FFF1F0590F49171
:101D9000E02D099481E090E0F8940C94F10EA1E21A
:101DA0001A2EAA1BBB1BFD010DC0AA1FBB1FEE1FD5
:101DB000FF1FA217B307E407F50720F0A21BB30B20
:101DC000E40BF50B661F771F881F991F1A9469F79C
:101DD00060957095809590959B01AC01BD01CF01F8
:061DE0000895F894FFCF06
:101DE6003200000090A2DA0F6A6D010000000100C7
:101DF6005E000000000000006309EB062C090A09DA
:101E06001E09AA09000000004408440844084408C2
:101E1600440844084408440844084408440844085C
:101E26004408440844084408000000004408EB063F
:101E36004408440844084408000000004408EB062F
:101E4600000000008D00CE02A300E70137028C00DF
:101E5600DD0322029B03100469035A02C801BB007A
:101E6600AB00A700F20000000000FB090000000024
:021E760044081E
:00000001FF
